{
    "_format": "hh-sol-artifact-1",
    "contractName": "DeCanvas",
    "sourceName": "contracts/DeCanvas.sol",
    "abi": [
        {
            "inputs": [],
            "stateMutability": "nonpayable",
            "type": "constructor"
        },
        {
            "anonymous": false,
            "inputs": [
                {
                    "indexed": true,
                    "internalType": "address",
                    "name": "painter",
                    "type": "address"
                },
                {
                    "indexed": false,
                    "internalType": "uint256",
                    "name": "timestamp",
                    "type": "uint256"
                },
                {
                    "components": [
                        {
                            "internalType": "address",
                            "name": "painter",
                            "type": "address"
                        },
                        {
                            "internalType": "uint8",
                            "name": "colour",
                            "type": "uint8"
                        }
                    ],
                    "indexed": false,
                    "internalType": "struct DeCanvas.Pixel",
                    "name": "pixel",
                    "type": "tuple"
                },
                {
                    "indexed": false,
                    "internalType": "uint256",
                    "name": "xcoord",
                    "type": "uint256"
                },
                {
                    "indexed": false,
                    "internalType": "uint256",
                    "name": "ycoord",
                    "type": "uint256"
                }
            ],
            "name": "Paint",
            "type": "event"
        },
        {
            "inputs": [],
            "name": "allowPaint",
            "outputs": [
                {
                    "internalType": "bool",
                    "name": "",
                    "type": "bool"
                }
            ],
            "stateMutability": "view",
            "type": "function"
        },
        {
            "inputs": [],
            "name": "getCanvas",
            "outputs": [
                {
                    "components": [
                        {
                            "components": [
                                {
                                    "internalType": "address",
                                    "name": "painter",
                                    "type": "address"
                                },
                                {
                                    "internalType": "uint8",
                                    "name": "colour",
                                    "type": "uint8"
                                }
                            ],
                            "internalType": "struct DeCanvas.Pixel[100][100]",
                            "name": "pixels",
                            "type": "tuple[100][100]"
                        }
                    ],
                    "internalType": "struct DeCanvas.Canvas",
                    "name": "",
                    "type": "tuple"
                }
            ],
            "stateMutability": "view",
            "type": "function"
        },
        {
            "inputs": [
                {
                    "internalType": "uint256",
                    "name": "x",
                    "type": "uint256"
                },
                {
                    "internalType": "uint256",
                    "name": "y",
                    "type": "uint256"
                },
                {
                    "internalType": "uint8",
                    "name": "_colour",
                    "type": "uint8"
                }
            ],
            "name": "paint",
            "outputs": [],
            "stateMutability": "nonpayable",
            "type": "function"
        },
        {
            "inputs": [],
            "name": "togglePainting",
            "outputs": [],
            "stateMutability": "nonpayable",
            "type": "function"
        }
    ],
    "bytecode": "0x6080604052600161271060146101000a81548160ff02191690831515021790555034801561002c57600080fd5b503361271060006101000a81548173ffffffffffffffffffffffffffffffffffffffff021916908373ffffffffffffffffffffffffffffffffffffffff1602179055506100b76040518060400160405280601a81526020017f446543616e76617320636f6e7472616374206465706c6f7965640000000000008152506100bc60201b6104de1760201c565b61023f565b610158816040516024016100d091906101bd565b6040516020818303038152906040527f41304fac000000000000000000000000000000000000000000000000000000007bffffffffffffffffffffffffffffffffffffffffffffffffffffffff19166020820180517bffffffffffffffffffffffffffffffffffffffffffffffffffffffff838183161783525050505061015b60201b60201c565b50565b60008151905060006a636f6e736f6c652e6c6f679050602083016000808483855afa5050505050565b600061018f826101df565b61019981856101ea565b93506101a98185602086016101fb565b6101b28161022e565b840191505092915050565b600060208201905081810360008301526101d78184610184565b905092915050565b600081519050919050565b600082825260208201905092915050565b60005b838110156102195780820151818401526020810190506101fe565b83811115610228576000848401525b50505050565b6000601f19601f8301169050919050565b610b2f806200024f6000396000f3fe608060405234801561001057600080fd5b506004361061004c5760003560e01c806306a00d43146100515780632896d1b41461006f5780639731a92f146100795780639c15ce0014610095575b600080fd5b6100596100b3565b60405161006691906108df565b60405180910390f35b6100776101c1565b005b610093600480360381019061008e9190610672565b61024a565b005b61009d6104ca565b6040516100aa91906108a2565b60405180910390f35b6100bb6105a0565b600060405180602001604052908160008201606480602002604051908101604052809291906000905b828210156101b457838260640201606480602002604051908101604052809291906000905b828210156101a1578382016040518060400160405290816000820160009054906101000a900473ffffffffffffffffffffffffffffffffffffffff1673ffffffffffffffffffffffffffffffffffffffff1673ffffffffffffffffffffffffffffffffffffffff1681526020016000820160149054906101000a900460ff1660ff1660ff168152505081526020019060010190610109565b50505050815260200190600101906100e4565b5050505081525050905090565b61271060009054906101000a900473ffffffffffffffffffffffffffffffffffffffff1673ffffffffffffffffffffffffffffffffffffffff163373ffffffffffffffffffffffffffffffffffffffff161461021c57600080fd5b61271060149054906101000a900460ff161561271060146101000a81548160ff021916908315150217905550565b6001151561271060149054906101000a900460ff1615151461026b57600080fd5b806000800184606481106102a8577f4e487b7100000000000000000000000000000000000000000000000000000000600052603260045260246000fd5b6064020183606481106102e4577f4e487b7100000000000000000000000000000000000000000000000000000000600052603260045260246000fd5b0160000160146101000a81548160ff021916908360ff1602179055503360008001846064811061033d577f4e487b7100000000000000000000000000000000000000000000000000000000600052603260045260246000fd5b606402018360648110610379577f4e487b7100000000000000000000000000000000000000000000000000000000600052603260045260246000fd5b0160000160006101000a81548173ffffffffffffffffffffffffffffffffffffffff021916908373ffffffffffffffffffffffffffffffffffffffff1602179055506103f96040518060400160405280601a81526020017f446543616e76617320636f6e7472616374206465706c6f7965640000000000008152506104de565b3373ffffffffffffffffffffffffffffffffffffffff167fcfe1e3949f8f68a61606ed6c6fc389f2f47a9bbe31e254aaaf13a892ab4dfa5f4260008001866064811061046e577f4e487b7100000000000000000000000000000000000000000000000000000000600052603260045260246000fd5b6064020185606481106104aa577f4e487b7100000000000000000000000000000000000000000000000000000000600052603260045260246000fd5b0186866040516104bd94939291906108fc565b60405180910390a2505050565b61271060149054906101000a900460ff1681565b610574816040516024016104f291906108bd565b6040516020818303038152906040527f41304fac000000000000000000000000000000000000000000000000000000007bffffffffffffffffffffffffffffffffffffffffffffffffffffffff19166020820180517bffffffffffffffffffffffffffffffffffffffffffffffffffffffff8381831617835250505050610577565b50565b60008151905060006a636f6e736f6c652e6c6f679050602083016000808483855afa5050505050565b60405180602001604052806105b36105b9565b81525090565b60405180610c8001604052806064905b6105d16105e7565b8152602001906001900390816105c95790505090565b60405180610c8001604052806064905b6105ff610615565b8152602001906001900390816105f75790505090565b6040518060400160405280600073ffffffffffffffffffffffffffffffffffffffff168152602001600060ff1681525090565b60008135905061065781610acb565b92915050565b60008135905061066c81610ae2565b92915050565b60008060006060848603121561068757600080fd5b600061069586828701610648565b93505060206106a686828701610648565b92505060406106b78682870161065d565b9150509250925092565b60006106cd8383610758565b6119008301905092915050565b60006106e68383610815565b60408301905092915050565b6106fb816109e4565b82525050565b61070a81610955565b6107148184610990565b925061071f82610941565b8060005b8381101561075057815161073787826106c1565b965061074283610976565b925050600181019050610723565b505050505050565b61076181610960565b61076b818461099b565b92506107768261094b565b8060005b838110156107a757815161078e87826106da565b965061079983610983565b92505060018101905061077a565b505050505050565b6107b8816109f6565b82525050565b60006107c98261096b565b6107d381856109a6565b93506107e3818560208601610a39565b6107ec81610aa0565b840191505092915050565b6209c4008201600082015161080f6000850182610701565b50505050565b60408201600082015161082b60008501826106f2565b50602082015161083e6020850182610893565b50505050565b60408201600080830154905061085981610a6c565b61086660008601826106f2565b5061087081610a86565b61087d6020860182610893565b5050505050565b61088d81610a22565b82525050565b61089c81610a2c565b82525050565b60006020820190506108b760008301846107af565b92915050565b600060208201905081810360008301526108d781846107be565b905092915050565b60006209c400820190506108f660008301846107f7565b92915050565b600060a0820190506109116000830187610884565b61091e6020830186610844565b61092b6060830185610884565b6109386080830184610884565b95945050505050565b6000819050919050565b6000819050919050565b600060649050919050565b600060649050919050565b600081519050919050565b6000602082019050919050565b6000602082019050919050565b600081905092915050565b600081905092915050565b600082825260208201905092915050565b600073ffffffffffffffffffffffffffffffffffffffff82169050919050565b600060ff82169050919050565b60006109ef82610a02565b9050919050565b60008115159050919050565b600073ffffffffffffffffffffffffffffffffffffffff82169050919050565b6000819050919050565b600060ff82169050919050565b60005b83811015610a57578082015181840152602081019050610a3c565b83811115610a66576000848401525b50505050565b6000610a7f610a7a83610ab1565b6109b7565b9050919050565b6000610a99610a9483610abe565b6109d7565b9050919050565b6000601f19601f8301169050919050565b60008160001c9050919050565b60008160a01c9050919050565b610ad481610a22565b8114610adf57600080fd5b50565b610aeb81610a2c565b8114610af657600080fd5b5056fea2646970667358221220a59aba6c8edf60f173a9ebaa290b0f60aa5076aebd25709795e4d6c11d27015e64736f6c63430008000033",
    "linkReferences": {},
    "deployedLinkReferences": {}
}